:030000000211E307
:0C11E300787FE4F6D8FD75815A02122ACC
:1018DA000000000100000007000A0BB8012C00C834
:1018EA0000020000000000020064000AFFFFFFFF80
:1018FA000014022E0408200501DA022E04081B0532
:10190A0001D9022E0408150501CE022E0408160577
:0A191A0001D2022E04081C0501BED4
:0413FA00410043006B
:0B1D67009018E4E493FE740193FF2247
:0B1D72009018E8E493FE740193FF2238
:081DC2009018E2740193FF2266
:031E06007F012237
:101A6100AD07ED75F008A42402F582E43419F5837D
:101A7100E493FEED75F008A42403F582E43419F52E
:0C1A810083E4937C002400FFEC3EFE2276
:101D0700EF75F008A424FFF582E43418F583E49313
:021D1700FF22A9
:081DCA009018DC740193FF2264
:0D1D3600742D2FF582E43400F583E0FF22C8
:081DD200900000E0C313FF22A2
:0A1D9300900000E075F00384FF22C9
:101C5F00121A61EF7803C333CE33CED8F9FF7C006D
:051C6F007D0A1207FED2
:011C7400224D
:1019B300E4FBFAF50BF50AF509F508750B0FF50AC3
:1019C300F509F508AF0BAE0AAD09AC0878011208AA
:1019D300BD8F0B8E0A8D098C0830D713740D2AF531
:1019E30082E43400F583EBF00AEAC3940450040B59
:0519F300BB17D18A586A
:0119F80022CC
:101A3400EF146012146014146011146015240470FF
:101A4400199018FC80089018FD80039018FEE49308
:0D1A5400FF229018EE740193FF227F002204
:10196C009018E0740193900000F09018FA740193B1
:10197C00900036F01219B3E4FFEFC395585020EFE6
:10198C0075F008A42400F582E43419F583E493FE81
:10199C00742D2FF582E43400F583EEF00F80DAE439
:0619AC00900034F0A3F0EE
:0119B2002212
:10092900E4F508F50CF50BF50AF509F510F50FF5E1
:100939000EF50D121E0C5003020A3B121ADB8F0C26
:100949008E0B8D0A8C09E4FBEBC395585047AF0C0D
:10095900AE0BAD0AAC0978011208BD8F0C8E0B8D58
:100969000A8C0930D72CE47F01FEFDFC740D2BF5B0
:1009790082E43400F583E0F9F81208D0E5104FF568
:1009890010E50F4EF50FE50E4DF50EE50D4CF50D85
:1009990005080B80B3E508C394024015D22FE5087A
:1009A90094034005121E0F8008121DCAEF6002C28F
:1009B9002F202F2CE4FFFEFDFCAB10AA0FA90EA8D7
:1009C9000DC31208AC6010900035E004F070069079
:1009D9000034E004F08020E4900034F0A3F08017A4
:1009E900900032E004F07006900031E004F0E4F584
:1009F90010F50FF50EF50D121D67D3900035E09F28
:100A0900900034E09E400A121E0FE4900034F0A3D7
:100A1900F0D3900032E0942C900031E09401401D15
:100A2900121E0F9000437401F0E4900031F0A3F01E
:100A3900800B9018EAE4740193FF120A4FAF10AECD
:050A49000FAD0EAC0D25
:010A4E002285
:03005B000219F98E
:1019F900C0E0C0F0C083C082C0D075D000C000C0B4
:101A090001C002C003C004C005C006C00712169F6A
:101A1900D007D006D005D004D003D002D001D00021
:0B1A2900D0D0D082D083D0F0D0E032CB
:101C7500439AC0539B3F4391C053923F43A1BF53E7
:061C8500A2407597FF224A
:091DA700C297C296C287C2A122B4
:061DF60053A042C2862248
:10115500E559B40C0040030211DF901166F8282808
:101165007302118A0211C60211C602119E0211C62E
:101175000211C60211B20211C60211C60211C9023C
:1011850011C60211DD0559D29790005EE0FF54BDEE
:1011950042A0EF30E147D286220559D29690005FF2
:1011A500E0FF54BD42A0EF30E133D286220559D28B
:1011B50087900060E0FF54BD42A0EF30E11FD2866A
:1011C500220559220559D2A1900061E0FF54BD4284
:0D11D500A0EF30E108D286228000E4F55939
:0111E20022EA
:091DB000121DA7121DF6021155C7
:1013FE00C11BC119C117C111C114410046004100E2
:0A140E004800C110C11CC112C11337
:0F1D1900BB09B59D0F9EBE89BF9FB6A604242FA0
:011E150022AA
:0C1D4300E490005EF0A3F0A3F0A3F022F7
:100C8B00AB07AA06C3EA648094805021900060E011
:100C9B0054F6F0901D25E49390005EF0C3E49BFFA7
:100CAB00E49AFE74192FF582741D3E8040C3EB94B9
:100CBB0064EA648094805039900060E054F6F07CD4
:100CCB00007D0AAF03AE0212085374192FF582741C
:100CDB001D3EF583E49390005EF07C007D0AAF032C
:100CEB00AE0212085374192DF582741D3CF58380E6
:100CFB0062C3EB94C8EA64809480900060E0504437
:100D0B004409F07C007D64AF03AE02120853AA04C1
:100D1B00AB057C007D0AAF03AE0212085374192F8A
:100D2B00F582741D3EF583E49390005EF0AE02AF46
:100D3B00037C007D0A12085374192DF582741D3C37
:100D4B00F583800F54F6F0901D23E49390005EF032
:100D5B00901D21E49390005FF0900047E0900061BC
:0C0D6B006005E0449BF022E044B3F0225D
:101C8B00BF0112901D23E49390005EF0EF901D199D
:061C9B009390005FF022AF
:101CF400901D24E49390005EF0EF901D19939000E2
:031D04005FF0226B
:10163600121D43900048E060077F01121CF48033BE
:10164600301930121DB950077F01121C8B802430CF
:10165600170BA2257211501B900044800E90004774
:10166600E0600590004B8003900049E0FEA3E0FF98
:10167600120C8B301407900060E04420F0121E120A
:10168600BF0108900060E04480F022121E12BF02E3
:0916960007900060E04410F0220E
:0A14180001270041006400013000CC
:101C0000538EFE5389F0858989758CF0758A0CC2D4
:081C10008DC28CD2A9D28C22F6
:03000B000214E6F6
:1014E600C0E0C0D0758CF0758A0C0528E528C39439
:1014F6000A4020752800D21D0529E529940A4005D1
:10150600752900D21F052CE52CC394024005752CC5
:1015160000D21E052EE52E7002052DC394F4E52D8E
:1015260094014019752D00752E00D220A21AB3928F
:101536001AA21CB3921CA211B39211B284052FE514
:101546002FC394024005752F00D221D0D0D0E032AF
:101A8D00759AFF759BFF7591FF7592FF75A1FF7597
:101A9D00A2FF75D9FF75DAFF7580FF7590FF75A0F0
:091AAD00FFE4F5D8D2AF021C00E1
:0E1D2800E4900064F0D218D211F52DF52E22B1
:1017A700301E4AC21EE51D6002151D30171C121D92
:1017B7009D50028015900064E004F0E0C394FA4065
:1017C7000EE4F0C217121B248005E4900064F03089
:1017D70018100530E530C3940F400AE4F530C218FD
:0E17E7008003E4F530301803D22522C22522FB
:0B1D7D00E4900047F0121E02D2192271
:10126F00121A8D121C75121E15121C18121D8812BF
:10127F001D7D7F027E00121C30BF551CE4FFFE1245
:10128F001C30900044E4F0A3EFF07F017E00121CAD
:10129F0030900047EFF0800E900044E4F0A3740A02
:1012AF00F0E4900047F01217A730210AC221121D57
:1012BF00B07527018016E5276012E4F5270533E5A1
:1012CF0033C394054006E4F533121D4F301D0BC296
:1012DF001D121BAD121473121636120D77301F022A
:0C12EF00C21F3020C1C22012188E80BA2D
:10142200C125C126014B00C127014C00C12A014F31
:1014320000014D00014E00410062004100630004C2
:05144200440000000061
:0A1D9D00E54D454E6002D322C3223B
:10175200900047E06027900045E004F0700690009A
:1017620044E004F0D3900045E09495900044E06496
:10177200809480402DE4F0A37495F080259000457C
:10178200E004F07006900044E004F0D3900045E0DD
:101792009441900044E0648094804006E4F0A37495
:0517A20041F0021D28CA
:1017F500900047E0601ED3900045E094209000449F
:10180500E0648094804002801C900044E4F0A3745E
:1018150020F08026D3900045E09400900044E064D9
:10182500809480400EA3E024FFF0900044E034FF54
:0D183500F08007E4900044F0A3F0021D28AD
:071DDA00BF0103751D0F227C
:101CA100EF24E0FFEE34FFFE7C007D051207EC7DA2
:041CB10009120853B9
:011CB500220C
:101CE0007C007D091207EC7D05120853EF2420FFCC
:031CF000E43EFED1
:011CF30022CE
:0B1D88001212FBE4900062F0A3F022B6
:101BE600900033E0FF30E711547FF01209298F4748
:0A1BF6008E468D458C44121E092214
:10192400121BE6AF47AE46AD45AC441208EF19545E
:1019340000000001195800000002195C00000004B6
:1019440019600000000819640000000C0000196808
:1019540075480222754801227548042275480322FD
:0719640075480D22E4F5486F
:01196B002259
:011E160022A9
:10066200121924054AE54A24FE601A146022146015
:100672002E14700302075C240460030207EBE548B2
:10068200700AF54A22E5487003F54A228548492254
:10069200E54965486006E4F549F54A22021E16E579
:1006A2004870030207EBE548B40113202610054BFE
:1006B200E54BC394964007E4F54BD226D203E548B6
:1006C200B40213202710054CE54CC394964007E46E
:1006D200F54CD227D207E548640370292028140577
:1006E2004DE54DC39496401DE4F54DD228D206D275
:1006F2002B8012D22B054DE54DC394054007E4F53E
:100702004DD206D225E54864047029202914054EED
:10071200E54EC39496401DE4F54ED229D205D22C63
:100722008012D22C054EE54EC394054007E4F54EE7
:10073200D205D225E548640D60030207EB202A109A
:10074200054FE54FC394964007E4F54FD22AD204F1
:100752009000627401F0E4A3F022E548600302070E
:10076200E7E54BD3940040047F0180027F00E54B14
:10077200C3949650047E0180027E00EE5F6002D236
:1007820008E54CD3940040047F0180027F00E54CD1
:10079200C3949650047E0180027E00EE5F6002D216
:1007A20009202B0FE54DC394965008E54D94004067
:1007B20002D20A202C0FE54EC394965008E54E94BF
:1007C200004002D20BE4F54BC226F54CC227F54F8E
:1007D200C22AF54DC228C22BF54EC229C22CC2250F
:0A07E200F54AF54922154A154A228E
:101BCB00900062E06014C20AC20BA3E004F0E0C311
:0B1BDB0094324006E4F0900062F0221B
:1010BA0030080CC208201907D2197F01121DDA3034
:1010CA000310C20330190BC219C217C2147F0112CE
:1010DA001DDA30070AC207301905A214B39214A206
:1010EA0006720A5013C20AC206201704D2178008D1
:1010FA007F01121DDA121752A205720B5013C20B8E
:10110A00C205201704D21780087F01121DDA1217B0
:10111A00F5300436C204301931900047E0600FE41C
:10112A00F0900044E0FEA3E0FF121CA180119000A1
:10113A00477401F0900044E0FEA3E0FF121CE09027
:0B114A000044EEF0A3EFF0121B242283
:061DFC00E4F521F52022B0
:0C1D4F00120662121BCB1210BA021DFC1F
:1004A800033C0335032D0325031D0315030D030426
:1004B80002FB02F302EA02E102D802CF02C502BC43
:1004C80002B202A9029F0295028B02810277026D95
:1004D80002630259024F0245023B02310227021D04
:1004E80002130209020001F601EC01E201D901CF71
:1004F80001C601BC01B301AA01A10198018F0186BF
:10050800017E0175016D0165015D0155014D0145D2
:10051800013E0136012F01280121011A0113010CA6
:100528000106010000F900F300ED00E800E200DC3C
:1005380000D700D200CC00C700C200BE00B900B48A
:1005480000B000AB00A700A3009F009B009700939A
:100558000090008C031D03170311030C030703020B
:1005680002FE02FC02F802F302EE02E902E402DFF4
:1005780002DA02D502D002CB02C502C002BB02B623
:1005880002B102AC02A702A1029A0295028F028967
:100598000283027D02770272026D02680263025DC5
:1005A80002580252024C02460240023B0236023115
:1005B800022B02260220021A0214020F020A020566
:1005C800020001FA01F601F001EA01E501DE01D9B4
:1005D80001D401CF01CA01C501C001BB01B601B1F7
:1005E80001AC01A701A1019C01970192018D01882D
:1005F8000183017E017901750170016B016601615A
:10060800015D015901550151014D01480144014065
:10061800013C013801340130012C0128012401205A
:10062800011C011801140110010C01090106010245
:1006380000FE00FA00F700F400F100EE00EB00E81D
:1006480000E500E200DF00DC00D900D700D400D1CB
:0A06580000CE00CB00C800C600C4AD
:10144700C12DC12E0240000002420000023E0000F2
:10145700023600190238003C023A0000023C000044
:071DE1005391DF5392DF2252
:101C1800121DE1C22EE4F5AD43AC0143AD8053A8DB
:081C2800BFD2AFC212C21322A9
:101B6B0043AD40E5AD30E4FB53ADEFAFAFEF75F0F8
:101B7B0010A4FFE5AEC4540F7C002FFFEC35F0FE34
:011B8B002237
:071DE80053ADF0EF42AD2204
:10147300900056E070677F08121DE8121B6B900006
:1014830057EEF0A3EFF090005DE02FF090005CE0EA
:101493003EF090005BE004F0C394104045E4F0A3F9
:1014A300E0C4F854F0C868F0A3E0C4540F48F090C7
:1014B300005CE0FEA3E07802CEC313CE13D8F9FF9D
:1014C300EE5403FE90005CF0A3EFF0900059EEF0B1
:1014D300A3EFF0E490005CF0A3F0D22E22E490009E
:0214E30056F0C1
:0114E50022E4
:040E5400AD07AC0634
:100E5800D3ED948DEC940050067C007D8D800DD3ED
:100E6800ED943CEC940340047C037D3C9004DAE46C
:100E780093FE740193FFC39004A87401939FE493B5
:100E88009E504BE53725E0FFE53633FE74A82FF575
:100E98008274043EF583D37401939DE4939C4010BF
:100EA800E53745366071E5371537700215368067C6
:100EB80074AA2FF58274043EF583D37401939DE4DC
:100EC800939C50530537E537700205368049E5375E
:100ED80025E0FFE53633FE74AA2FF58274043EF54B
:100EE80083D37401939DE4939C400A0537E53770DA
:100EF800020536802274A82FF58274043EF583D348
:100F08007401939DE4939C500EE53745366008E5DF
:100F180037153770021536E53724F7FFE53634FF05
:010F2800FECA
:010F290022A5
:040F2A00AD07AC065D
:100F2E00D3ED94C5EC940050067C007DC5800DC3B6
:100F3E00ED941CEC940340047C037D1C90058EE420
:100F4E0093FE740193FFC390055C7401939FE49329
:100F5E009E504BE53925E0FFE53833FE745C2FF5E6
:100F6E008274053EF583D37401939DE4939C4010E7
:100F7E00E53945386071E5391539700215388067E5
:100F8E00745E2FF58274053EF583D37401939DE450
:100F9E00939C50530539E539700205388049E5397F
:100FAE0025E0FFE53833FE745E2FF58274053EF5BD
:100FBE0083D37401939DE4939C400A0539E53970FF
:100FCE000205388022745C2FF58274053EF583D3BA
:100FDE007401939DE4939C500EE53945386008E505
:100FEE0039153970021538E5392417FFE43538FE06
:010FFE0022D0
:100D7700202E03020E41900059E0FEA3E0FFD39519
:100D87003DEE953C500BC3E53D9FFBE53C9EFA804D
:100D970009C3EF953DFBEE953CFAD3EF948DEE94A6
:100DA7000050028013C3EF943CEE9403500AEB9477
:100DB70006EA9400400680008E3C8F3DD3EF953BBA
:100DC700EE953A500BC3E53B9FFBE53A9EFA800947
:100DD700C3EF953BFBEE953AFAD3EF94C5EE94003B
:100DE70050028013C3EF941CEE9403500AEB940651
:100DF700EA9400400680008E3A8F3BC3EF940AEED8
:100E070094005005D213C21222C3EF94FCEE940350
:100E17005023C213C212AF3DAE3C120E549000498C
:100E2700EEF0A3EFF0AF3BAE3A120F2A90004BEE75
:100E3700F0A3EFF022D212C21322900049E4F0A3EC
:0C0E47007419F090004BE4F0A3743CF030
:010E5300227C
:091DB900A2127213500122C32290
:0414670041005300ED
:100B6E0075F0029000371208E3E0FEA3E0FFE513F4
:100B7E0075F0029000110208E3E51275F002900084
:100B8E00010208E3E51275F0029000210208E374F9
:100B9E00192516F582E43400F58322D3E5149FEE71
:100BAE006480F8E5136480982274292512F582E496
:100BBE003400F58322D3FFED9FEE6480F8EC648061
:100BCE009822743F2512F582E43400F58322E00466
:100BDE00F074092512F582E43400F58322E51375CD
:100BEE00F0029000370208E3E4F0FFFEFDFCAB5389
:100BFE00AA52A951A850C30208ACFEC3E5159FEE38
:100C0E006480F8E51464809822E5535557FFE55249
:100C1E005556FEE5515555FDE5505554FC22741DB3
:100C2E002512F582E43400F58322E0FEA3E0FF7581
:100C3E00F002227E0090004FE0FCA3E0FD1207ECD4
:100C4E008EE78FE622A4FFE0C39FE5F06480F87480
:100C5E008098227D0A1207FEAD037C000207ECE0AD
:100C6E00FCA3E0C39F22900036E0FB3395E0FAEB45
:0D0C7E00AE0222900036E0FF3395E0FE222A
:0C1D5B00EF4E6007EF1F70F81E80F522AD
:02137B008F1BC6
:10137D00121D36900065EFF0AF1B121D07EFFB90AD
:10138D000050E025E0FF90004FE033FE7C00120C92
:10139D0061E51B120B89120C6DEC9E5009900065D6
:1013AD00E06049148036AF1B121D07EFFB90004F14
:1013BD00E0FEA3E0FF7C007D071207EC120C6175C7
:1013CD00F002E51B120B8CE0FCA3E0D39FEC9E40DA
:1013DD001B900065E0FF647E6012EF04FF742D2505
:0C13ED001BF582E43400F583EFF0D230F1
:0113F90022D1
:10169F00C232900054E0120B7EE5E5F0A3E5E4F0D2
:1016AF00900054E004F0E0C39558400BE4F0900034
:1016BF0033E04480F08002D232900054E0FF121DDC
:1016CF0007120C41900054E0FF121D36E5E25480E2
:1016DF004FF5E2900054E0240DF582E43400F583D9
:0A16EF00E04480F5E8303202D2EE4C
:0116F90022CE
:1012FB00D2AFC230E4900054F0900033F012196C6E
:10130B00E4FF121A34EF2401FDE433FC7E0B7FB8AB
:10131B001207FE90004FEEF0A3EFF0E4FF121D0753
:10132B00120C417F02121A34EFC454F0FEC006E4D3
:10133B00FF121A34D0E02FF5E17F03121A34E5E2E5
:10134B0054804FF5E27F04121A34EF6008E5E25443
:10135B00804480F5E27F01121A348FE31218424366
:10136B00A91090000DE04480F5E81216FA021B005C
:031E0900D2EE22F4
:101AB600E4FD900033E0547FF0D2EE900033E02056
:101AC600E7127FE87E03121D5B43CF100DEDC39432
:041AD6003240E82290
:011ADA0022E9
:1016FA00750820121AB6E4F509E509C39558501B76
:10170A00E509120B7E120C38E509120B8CEEF0A3D8
:10171A00EFF0AF0912137B050980DEAF081508EF59
:10172A0070D1121B8C121DC28F08121AB6E4F50969
:10173A00E509C395585009AF09120FFF050980F052
:07174A00AF081508EF70E382
:011751002275
:101B0000E4FFEFC39558501B75F002EF120B81E014
:101B1000FCA3E0FD75F002EF120B8CECF0A3EDF0EE
:031B20000F80DF54
:011B2300229F
:101ADB00E4900055F0F511E511C39558500EAF1178
:101AEB00120FFFAF11120100051180EBAF53AE5275
:041AFB00AD51AC50ED
:011AFF0022C4
:020100008F125C
:10010200E4F51A75F002EF120B8C120C38E512129C
:100112000B81120C6DF514EC9EF513E47F01FEFDCC
:10012200FCA912A8011208D08F578E568D558C54F7
:10013200AF12121A618E188F19C3E5149519E518BA
:10014200120BAE40057515018003E4F515E5156443
:1001520001600302028774192512120BA1E0C394F5
:10016200FA500A74192512120BA1E004F0120C17AE
:10017200E4FBFAF9F8C31208AC600302026A9000C9
:1001820000E0F517121E06EF6028E4F515F516E5F6
:1001920016C39558500F120B9DE0C39401400205FF
:1001A20015051680EAE515C394034006740F25175A
:1001B200F51774192512120BA1E0C395175003020B
:1001C200026AE4F515121DCAEF7051F516E516C361
:1001D2009558501AE51265166010121D93120B9D68
:1001E200E0C39F40057515018004051680DF121ECD
:1001F20006EF7052E515704EF516E516C395585088
:1002020045E51265166011121D93741D2516120C18
:1002120030E0C39F4002802B051680DE121E06EFDF
:100222007024F517F516E516C39558500F120B9D5D
:10023200E0C3940240020517051680EAE517C3944D
:10024200034003751501E515B40102D22FE55345AC
:1002520057FFE5524556FEE5514555FDE5504554DB
:100262008F538E528D51F550120BB7E4F0120BD012
:10027200E4F0120B92E4F0A3F074092512F582E483
:10028200340002045DAF12121C5F120BA940081267
:100292000C2CE004F0800B900055E004F0120C2CC2
:1002A200E4F0120C81C3E49FFDE49EFCC3E5149DBF
:1002B200EC120BAE4066120BA95061120BB7E4129E
:1002C2000BDE120BF660030203CA120B92E51385D2
:1002D20014F0120889121D72120B92E0FCA3E0C303
:1002E200120BC64009120B87E475F0018021121D22
:1002F20072C3E49FFFE49EFE120B92E0FCA3E0C3F4
:10030200120BC640030203CA120B8774FFF5F012E8
:100312000889120B92E4F0A3F00203CA900036E0BF
:10032200FFFD3395E0FCC3E49DFDE49CFCC3E514B2
:100332009DEC120BAE505A120BB7120BDCE4F0120A
:100342000BB7E0FE75F00A84E5F07037EEC39464F3
:10035200400E120BB7E4F0D23090004304F0802339
:10036200120B87C083C082E0FCA3E0FDEFA2E7137B
:10037200FF3395E0FEC3ED9FFFEC9ED082D083F069
:10038200A3EFF090004EE06512703D74FFF002039F
:10039200CA120C81120BA9402F120BB7120BF67066
:1003A20027120BDF120BDCE0B4201D120BDFE4F08E
:1003B200900036E0A2E713A2E713FF3395E0FE12A6
:1003C2000B87EE8FF0120889120C174D4E4F7003F7
:1003D200020469E519AE187802CEA2E713CE13D84B
:1003E200F8FFC3E5199FFFE5189EFEC3120BAA5042
:1003F2006F120BD0E004F0121DD28F17E4F516E550
:1004020016C39558500F120B9DE0C394014002058C
:1004120015051680EAE515C394034006900000E036
:10042200F517120BD0E0C39517407A120BD0E4F007
:10043200AF57AE56AD55AC5412089FE5535FFFE57A
:10044200525EFEE5515DFDE5505C8F538E528D513B
:10045200F55074192512F582E43400F583E4F02294
:10046200120BD0E014F02274192512120BA1120BF8
:10047200F67005AF1212137BE558146512702690C0
:100482000055E0C39558401DE4F516E516C395588E
:10049200500D120B9DE06003751501051680ECE509
:0504A200157002C22FDD
:0104A7002232
:101B8C00E4FFEFC39558501875F002EF120B81E08B
:101B9C00FCA3E0FDEF120BEDECF0A3EDF00F80E2F7
:011BAC002216
:020FFF008F134E
:10100100EF120B6E120C6DF515EC9EF514AF131269
:101011001A61AD07AC06D3E5159DEC120C0E500B11
:10102100C3E49DFFE49C120C08500B120B7CE0FE04
:10103100A3E0FF0210A7ECA2E713FEED13FFD3120A
:101041000C0A500BC3E49FFFE49E120C08502712B8
:101051000BEBE0FCA3E0FDECC313FEED13FFC3EDCE
:101061009FFDEC9EFC120B7CE0C313FEA3E0132D4D
:10107100FFEC3EFE8030120BEBE0FCA3E0FDAE0482
:101081007803CEC313CE13D8F9FFC3ED9FFDEC9EB9
:10109100FC120B7CE0FEA3E07803CEC313CE13D881
:1010A100F92DFFEC3EFE120BEBEEF0A3EFF0E51392
:0810B100120B6EEEF0A3EFF04C
:0110B9002214
:031E0C00A23022DF
:031E0F00D23022AC
:10184200E4FFEFC39558502B74192F120BA1E4F04B
:1018520074292F120BBBE4F0743F2F120BD4E4F067
:10186200EF120B94E4F0A3F0741D2F120C30E4F08D
:101872000F80CFE4F553F552F551F55090004E74B8
:0B188200FFF0E4900051F0A3F0C23032
:01188D002238
:020A4F008F1105
:100A5100900053E0C394034035E4F0900043E0700C
:100A610022F512E512C39558501975F002E51212DC
:100A71000BF0120C38E512120B8CEEF0A3EFF0051F
:100A81001280E0121842C230E4900043F02290003C
:100A91004DE004F0E0B51108121B8CE490004EF01B
:100AA10090004DE0D395115003020B6DE4F512E572
:100AB10012C39558507A75F002E512120BF0120C20
:100AC10038E512120B81120C6DFFEC9EAD07FC9004
:100AD1000043E07029120C747802C333CE33CED8B0
:100AE100F9120BC34040E49BFFE49AFEEF7802C386
:100AF10033CE33CED8F9C3120BC4502A8032120C34
:100B0100747803C333CE33CED8F9120BC34017E444
:100B11009BFFE49AFEEF7803C333CE33CED8F9FFBF
:100B2100C3120BC5400AAF12120FFF0512020AB021
:100B3100E512B5580690004EE004F0E51175F00895
:100B410090004D120C534024E4F0C22F900053E06A
:100B510004F0E51175F00490004E120C53400DE4C1
:0C0B6100900053F0121B00121842C2302A
:010B6D002265
:03146B00015A0023
:041E0200E4F55A2287
:101C4800EF24FE600804700AD2D8C29122C2D8D20A
:071C58009122C2D8C29122C3
:101CB600EF1460071470087F0180067F028002E43B
:051CC600FF121C482282
:031E1200AF5A22A2
:10155600E55AB40116EFFDD390004AE09D7480F879
:10156600900049E064809850568019E55AB40218F4
:10157600EFFDC390004AE09D7480F8900049E06456
:101586008098403BE4F55A22EF2401FDE433FC90B9
:101596000049E0FAA3E0FBD39DEC6480F8EA64809E
:1015A600984004755A0122EF24FFFFE434FFFEC37E
:1015B600EB9FEE6480F8EA6480985003755A022225
:1015C600E55AB40116EFFDD390004CE09D7480F807
:1015D60090004BE064809850568019E55AB4021882
:1015E600EFFDC390004CE09D7480F890004BE064E2
:1015F6008098403BE4F55A22EF2401FDE433FC9049
:10160600004BE0FAA3E0FBD39DEC6480F8EA64802B
:10161600984004755A0122EF24FFFFE434FFFEC30D
:10162600EB9FEE6480F8EA6480985003755A0222B4
:10188E00C231900047E0900044600CE0FEA3E0FF00
:10189E00121CA18F088004A3E0F508121DB9923125
:1018AE00301921303102801C20171C900047E09027
:1018BE0000446008A3E0FF1215C6800BA3E0FF12E0
:0C18CE0015568003E4F55AAF5A021CB610
:101CCB00EF2422600A24DD7009A2D9B392D922D263
:051CDB00D922C2D9224C
:101BAD00301915A2D87291500B3014047F01800AA0
:0E1BBD007FDE8006E4FF8002E4FF121CCB22D4
:04146E00021E00005A
:071DEF00EF60031F80FA22E0
:101B4800AB07AA06C2AF75F4028DF5EA543FF5F368
:101B58008BF275F1F075F60A7F0A121DEFE4F5F4C1
:031B6800D2AF22D7
:101C3000C2AF75F402E51F2FF582E51E3EF583E481
:071C400093FFE4F5F4D2AFBD
:011C4700227A
:101B2400900044A3E0FDE4FFFE121B48900047E050
:101B3400FD7F01121B487D557F02121B487DAA7F41
:041B440003021B4835
:1011EF0002126FE493A3F8E493A34003F68001F295
:1011FF0008DFF48029E493A3F85407240CC8C33301
:10120F00C4540F4420C8834004F456800146F6DFCF
:10121F00E4800B01020408102040809013FAE47E52
:10122F00019360BCA3FF543F30E509541FFEE493C4
:10123F00A360010ECF54C025E060A840B8E493A38B
:10124F00FAE493A3F8E493A3C8C582C8CAC583CAB6
:10125F00F0A3C8C582C8CAC583CADFE9DEE780BE6E
:011472000079
:1007EC00EF8DF0A4A8F0CF8CF0A428CE8DF0A42E21
:0207FC00FE22DB
:1007FE00BC000BBE0029EF8DF084FFADF022E4CCDF
:10080E00F875F008EF2FFFEE33FEEC33FCEE9DECA7
:10081E00984005FCEE9DFE0FD5F0E9E4CEFD22EDED
:10082E00F8F5F0EE8420D21CFEADF075F008EF2F37
:10083E00FFED33FD4007985006D5F0F222C398FD28
:05084E000FD5F0EA22C5
:10085300C2D5EC30E709B2D5E4C39DFDE49CFCEEC0
:1008630030E715B2D5E4C39FFFE49EFE1207FEC333
:10087300E49DFDE49CFC80031207FE30D507C3E42E
:060883009FFFE49EFE222F
:10088900C5F0F8A3E028F0C5F0F8E58215827002FA
:060899001583E038F02297
:0D089F00CFF4CFCEF4CECDF4CDCCF4CC22EE
:1008AC00EB9FF5F0EA9E42F0E99D42F0E89C45F0A2
:0108BC002219
:1008BD00E8600FECC313FCED13FDEE13FEEF13FF19
:0308CD00D8F1223D
:1008D000E8600FEFC333FFEE33FEED33FDEC33FC86
:0308E000D8F1222A
:0C08E300A42582F582E5F03583F5832220
:1008EF00D083D082E4937012740193700DA3A393FD
:1008FF00F8740193F5828883E4737402936C701219
:10090F007403936D700C7404936E70067405936F7B
:0A091F0060DDA3A3A3A3A3A380CA75
:00000001FF
